{
	"5_array.sol": {
		"Array": {
			"abi": [
				{
					"inputs": [
						{
							"internalType": "uint256",
							"name": "",
							"type": "uint256"
						}
					],
					"name": "arr1",
					"outputs": [
						{
							"internalType": "uint256",
							"name": "",
							"type": "uint256"
						}
					],
					"stateMutability": "view",
					"type": "function"
				},
				{
					"inputs": [
						{
							"internalType": "uint256",
							"name": "",
							"type": "uint256"
						}
					],
					"name": "arr2",
					"outputs": [
						{
							"internalType": "uint256",
							"name": "",
							"type": "uint256"
						}
					],
					"stateMutability": "view",
					"type": "function"
				},
				{
					"inputs": [],
					"name": "length1",
					"outputs": [
						{
							"internalType": "uint256",
							"name": "",
							"type": "uint256"
						}
					],
					"stateMutability": "view",
					"type": "function"
				},
				{
					"inputs": [],
					"name": "length2",
					"outputs": [
						{
							"internalType": "uint256",
							"name": "",
							"type": "uint256"
						}
					],
					"stateMutability": "view",
					"type": "function"
				},
				{
					"inputs": [],
					"name": "pop",
					"outputs": [],
					"stateMutability": "nonpayable",
					"type": "function"
				},
				{
					"inputs": [
						{
							"internalType": "uint256",
							"name": "item",
							"type": "uint256"
						}
					],
					"name": "pushElement",
					"outputs": [],
					"stateMutability": "nonpayable",
					"type": "function"
				},
				{
					"inputs": [
						{
							"internalType": "uint256",
							"name": "index",
							"type": "uint256"
						},
						{
							"internalType": "uint256",
							"name": "value",
							"type": "uint256"
						}
					],
					"name": "setter",
					"outputs": [],
					"stateMutability": "nonpayable",
					"type": "function"
				}
			],
			"devdoc": {
				"kind": "dev",
				"methods": {},
				"version": 1
			},
			"evm": {
				"assembly": "    /* \"5_array.sol\":37:626  contract Array... */\n  mstore(0x40, 0x80)\n    /* \"5_array.sol\":60:95  uint[4] public arr1 = [10,20,30,40] */\n  mload(0x40)\n  dup1\n  0x80\n  add\n  0x40\n  mstore\n  dup1\n    /* \"5_array.sol\":83:85  10 */\n  0x0a\n    /* \"5_array.sol\":60:95  uint[4] public arr1 = [10,20,30,40] */\n  0xff\n  and\n  dup2\n  mstore\n  0x20\n  add\n    /* \"5_array.sol\":86:88  20 */\n  0x14\n    /* \"5_array.sol\":60:95  uint[4] public arr1 = [10,20,30,40] */\n  0xff\n  and\n  dup2\n  mstore\n  0x20\n  add\n    /* \"5_array.sol\":89:91  30 */\n  0x1e\n    /* \"5_array.sol\":60:95  uint[4] public arr1 = [10,20,30,40] */\n  0xff\n  and\n  dup2\n  mstore\n  0x20\n  add\n    /* \"5_array.sol\":92:94  40 */\n  0x28\n    /* \"5_array.sol\":60:95  uint[4] public arr1 = [10,20,30,40] */\n  0xff\n  and\n  dup2\n  mstore\n  pop\n  0x00\n  swap1\n  dup2\n  tag_1\n  swap2\n  swap1\n  tag_2\n  jump\t// in\ntag_1:\n  pop\n    /* \"5_array.sol\":37:626  contract Array... */\n  callvalue\n  dup1\n  iszero\n  tag_3\n  jumpi\n  revert(0x00, 0x00)\ntag_3:\n  pop\n  jump(tag_4)\n    /* \"#utility.yul\":7:187   */\ntag_5:\n    /* \"#utility.yul\":55:132   */\n  0x4e487b7100000000000000000000000000000000000000000000000000000000\n    /* \"#utility.yul\":52:53   */\n  0x00\n    /* \"#utility.yul\":45:133   */\n  mstore\n    /* \"#utility.yul\":152:156   */\n  0x41\n    /* \"#utility.yul\":149:150   */\n  0x04\n    /* \"#utility.yul\":142:157   */\n  mstore\n    /* \"#utility.yul\":176:180   */\n  0x24\n    /* \"#utility.yul\":173:174   */\n  0x00\n    /* \"#utility.yul\":166:181   */\n  revert\n    /* \"#utility.yul\":193:294   */\ntag_6:\n    /* \"#utility.yul\":255:261   */\n  0x00\n    /* \"#utility.yul\":283:287   */\n  0x04\n    /* \"#utility.yul\":273:287   */\n  swap1\n  pop\n    /* \"#utility.yul\":193:294   */\n  swap2\n  swap1\n  pop\n  jump\t// out\n    /* \"#utility.yul\":300:377   */\ntag_7:\n    /* \"#utility.yul\":337:344   */\n  0x00\n    /* \"#utility.yul\":366:371   */\n  dup2\n    /* \"#utility.yul\":355:371   */\n  swap1\n  pop\n    /* \"#utility.yul\":300:377   */\n  swap2\n  swap1\n  pop\n  jump\t// out\n    /* \"#utility.yul\":985:1186   */\ntag_10:\n    /* \"#utility.yul\":1064:1068   */\n  0x00\n    /* \"#utility.yul\":1087:1093   */\n  dup2\n    /* \"#utility.yul\":1079:1093   */\n  swap1\n  pop\n    /* \"#utility.yul\":1177:1178   */\n  0x01\n    /* \"#utility.yul\":1172:1173   */\n  dup1\n    /* \"#utility.yul\":1169:1170   */\n  0x01\n    /* \"#utility.yul\":1165:1174   */\n  sub\n    /* \"#utility.yul\":1157:1163   */\n  dup4\n    /* \"#utility.yul\":1153:1175   */\n  add\n    /* \"#utility.yul\":1149:1179   */\n  div\n    /* \"#utility.yul\":1141:1179   */\n  swap1\n  pop\n    /* \"#utility.yul\":985:1186   */\n  swap2\n  swap1\n  pop\n  jump\t// out\n    /* \"#utility.yul\":1191:1286   */\ntag_11:\n    /* \"#utility.yul\":1253:1257   */\n  0x00\n    /* \"#utility.yul\":1276:1279   */\n  dup2\n    /* \"#utility.yul\":1268:1279   */\n  swap1\n  pop\n    /* \"#utility.yul\":1191:1286   */\n  swap2\n  swap1\n  pop\n  jump\t// out\n    /* \"#utility.yul\":1292:1399   */\ntag_12:\n    /* \"#utility.yul\":1336:1344   */\n  0x00\n    /* \"#utility.yul\":1386:1391   */\n  dup3\n    /* \"#utility.yul\":1380:1384   */\n  dup3\n    /* \"#utility.yul\":1376:1392   */\n  shl\n    /* \"#utility.yul\":1355:1392   */\n  swap1\n  pop\n    /* \"#utility.yul\":1292:1399   */\n  swap3\n  swap2\n  pop\n  pop\n  jump\t// out\n    /* \"#utility.yul\":1405:1798   */\ntag_13:\n    /* \"#utility.yul\":1474:1480   */\n  0x00\n    /* \"#utility.yul\":1524:1525   */\n  0x08\n    /* \"#utility.yul\":1512:1522   */\n  dup4\n    /* \"#utility.yul\":1508:1526   */\n  mul\n    /* \"#utility.yul\":1547:1644   */\n  tag_47\n    /* \"#utility.yul\":1577:1643   */\n  0xffffffffffffffffffffffffffffffffffffffffffffffffffffffffffffffff\n    /* \"#utility.yul\":1566:1575   */\n  dup3\n    /* \"#utility.yul\":1547:1644   */\n  tag_12\n  jump\t// in\ntag_47:\n    /* \"#utility.yul\":1665:1704   */\n  tag_48\n    /* \"#utility.yul\":1695:1703   */\n  dup7\n    /* \"#utility.yul\":1684:1693   */\n  dup4\n    /* \"#utility.yul\":1665:1704   */\n  tag_12\n  jump\t// in\ntag_48:\n    /* \"#utility.yul\":1653:1704   */\n  swap6\n  pop\n    /* \"#utility.yul\":1737:1741   */\n  dup1\n    /* \"#utility.yul\":1733:1742   */\n  not\n    /* \"#utility.yul\":1726:1731   */\n  dup5\n    /* \"#utility.yul\":1722:1743   */\n  and\n    /* \"#utility.yul\":1713:1743   */\n  swap4\n  pop\n    /* \"#utility.yul\":1786:1790   */\n  dup1\n    /* \"#utility.yul\":1776:1784   */\n  dup7\n    /* \"#utility.yul\":1772:1791   */\n  and\n    /* \"#utility.yul\":1765:1770   */\n  dup5\n    /* \"#utility.yul\":1762:1792   */\n  or\n    /* \"#utility.yul\":1752:1792   */\n  swap3\n  pop\n    /* \"#utility.yul\":1481:1798   */\n  pop\n  pop\n    /* \"#utility.yul\":1405:1798   */\n  swap4\n  swap3\n  pop\n  pop\n  pop\n  jump\t// out\n    /* \"#utility.yul\":1804:1864   */\ntag_14:\n    /* \"#utility.yul\":1832:1835   */\n  0x00\n    /* \"#utility.yul\":1853:1858   */\n  dup2\n    /* \"#utility.yul\":1846:1858   */\n  swap1\n  pop\n    /* \"#utility.yul\":1804:1864   */\n  swap2\n  swap1\n  pop\n  jump\t// out\n    /* \"#utility.yul\":1870:2012   */\ntag_15:\n    /* \"#utility.yul\":1920:1929   */\n  0x00\n    /* \"#utility.yul\":1953:2006   */\n  tag_51\n    /* \"#utility.yul\":1971:2005   */\n  tag_52\n    /* \"#utility.yul\":1980:2004   */\n  tag_53\n    /* \"#utility.yul\":1998:2003   */\n  dup5\n    /* \"#utility.yul\":1980:2004   */\n  tag_7\n  jump\t// in\ntag_53:\n    /* \"#utility.yul\":1971:2005   */\n  tag_14\n  jump\t// in\ntag_52:\n    /* \"#utility.yul\":1953:2006   */\n  tag_7\n  jump\t// in\ntag_51:\n    /* \"#utility.yul\":1940:2006   */\n  swap1\n  pop\n    /* \"#utility.yul\":1870:2012   */\n  swap2\n  swap1\n  pop\n  jump\t// out\n    /* \"#utility.yul\":2018:2093   */\ntag_16:\n    /* \"#utility.yul\":2061:2064   */\n  0x00\n    /* \"#utility.yul\":2082:2087   */\n  dup2\n    /* \"#utility.yul\":2075:2087   */\n  swap1\n  pop\n    /* \"#utility.yul\":2018:2093   */\n  swap2\n  swap1\n  pop\n  jump\t// out\n    /* \"#utility.yul\":2099:2368   */\ntag_17:\n    /* \"#utility.yul\":2209:2248   */\n  tag_56\n    /* \"#utility.yul\":2240:2247   */\n  dup4\n    /* \"#utility.yul\":2209:2248   */\n  tag_15\n  jump\t// in\ntag_56:\n    /* \"#utility.yul\":2270:2361   */\n  tag_57\n    /* \"#utility.yul\":2319:2360   */\n  tag_58\n    /* \"#utility.yul\":2343:2359   */\n  dup3\n    /* \"#utility.yul\":2319:2360   */\n  tag_16\n  jump\t// in\ntag_58:\n    /* \"#utility.yul\":2311:2317   */\n  dup5\n    /* \"#utility.yul\":2304:2308   */\n  dup5\n    /* \"#utility.yul\":2298:2309   */\n  sload\n    /* \"#utility.yul\":2270:2361   */\n  tag_13\n  jump\t// in\ntag_57:\n    /* \"#utility.yul\":2264:2268   */\n  dup3\n    /* \"#utility.yul\":2257:2362   */\n  sstore\n    /* \"#utility.yul\":2175:2368   */\n  pop\n    /* \"#utility.yul\":2099:2368   */\n  pop\n  pop\n  pop\n  jump\t// out\n    /* \"#utility.yul\":2374:2447   */\ntag_18:\n    /* \"#utility.yul\":2419:2422   */\n  0x00\n    /* \"#utility.yul\":2440:2441   */\n  0x00\n    /* \"#utility.yul\":2433:2441   */\n  swap1\n  pop\n    /* \"#utility.yul\":2374:2447   */\n  swap1\n  jump\t// out\n    /* \"#utility.yul\":2453:2642   */\ntag_19:\n    /* \"#utility.yul\":2530:2562   */\n  tag_61\n  tag_18\n  jump\t// in\ntag_61:\n    /* \"#utility.yul\":2571:2636   */\n  tag_62\n    /* \"#utility.yul\":2629:2635   */\n  dup2\n    /* \"#utility.yul\":2621:2627   */\n  dup5\n    /* \"#utility.yul\":2615:2619   */\n  dup5\n    /* \"#utility.yul\":2571:2636   */\n  tag_17\n  jump\t// in\ntag_62:\n    /* \"#utility.yul\":2506:2642   */\n  pop\n    /* \"#utility.yul\":2453:2642   */\n  pop\n  pop\n  jump\t// out\n    /* \"#utility.yul\":2648:2863   */\ntag_20:\n    /* \"#utility.yul\":2734:2735   */\n  0x00\n    /* \"#utility.yul\":2719:2857   */\ntag_64:\n    /* \"#utility.yul\":2744:2753   */\n  dup3\n    /* \"#utility.yul\":2741:2742   */\n  dup2\n    /* \"#utility.yul\":2738:2754   */\n  lt\n    /* \"#utility.yul\":2719:2857   */\n  iszero\n  tag_66\n  jumpi\n    /* \"#utility.yul\":2796:2847   */\n  tag_67\n    /* \"#utility.yul\":2845:2846   */\n  0x00\n    /* \"#utility.yul\":2841:2842   */\n  dup3\n    /* \"#utility.yul\":2830:2839   */\n  dup5\n    /* \"#utility.yul\":2826:2843   */\n  add\n    /* \"#utility.yul\":2796:2847   */\n  tag_19\n  jump\t// in\ntag_67:\n    /* \"#utility.yul\":2769:2770   */\n  0x01\n    /* \"#utility.yul\":2766:2767   */\n  dup2\n    /* \"#utility.yul\":2762:2771   */\n  add\n    /* \"#utility.yul\":2757:2771   */\n  swap1\n  pop\n    /* \"#utility.yul\":2719:2857   */\n  jump(tag_64)\ntag_66:\n    /* \"#utility.yul\":2723:2737   */\n  pop\n    /* \"#utility.yul\":2648:2863   */\n  pop\n  pop\n  jump\t// out\n    /* \"#utility.yul\":3242:3874   */\ntag_23:\n    /* \"#utility.yul\":3360:3363   */\n  dup2\n    /* \"#utility.yul\":3348:3358   */\n  dup4\n    /* \"#utility.yul\":3345:3364   */\n  lt\n    /* \"#utility.yul\":3342:3867   */\n  iszero\n  tag_72\n  jumpi\n    /* \"#utility.yul\":3451:3514   */\n  tag_73\n    /* \"#utility.yul\":3510:3513   */\n  dup3\n    /* \"#utility.yul\":3451:3514   */\n  tag_10\n  jump\t// in\ntag_73:\n    /* \"#utility.yul\":3547:3617   */\n  tag_74\n    /* \"#utility.yul\":3606:3616   */\n  dup5\n    /* \"#utility.yul\":3547:3617   */\n  tag_10\n  jump\t// in\ntag_74:\n    /* \"#utility.yul\":3652:3703   */\n  tag_75\n    /* \"#utility.yul\":3697:3702   */\n  dup4\n    /* \"#utility.yul\":3652:3703   */\n  tag_11\n  jump\t// in\ntag_75:\n    /* \"#utility.yul\":3755:3767   */\n  dup2\n    /* \"#utility.yul\":3739:3753   */\n  dup2\n    /* \"#utility.yul\":3735:3768   */\n  add\n    /* \"#utility.yul\":3782:3857   */\n  tag_76\n    /* \"#utility.yul\":3843:3855   */\n  dup4\n    /* \"#utility.yul\":3829:3841   */\n  dup6\n    /* \"#utility.yul\":3825:3856   */\n  sub\n    /* \"#utility.yul\":3812:3823   */\n  dup3\n    /* \"#utility.yul\":3782:3857   */\n  tag_20\n  jump\t// in\ntag_76:\n    /* \"#utility.yul\":3365:3867   */\n  pop\n  pop\n  pop\n  pop\n    /* \"#utility.yul\":3342:3867   */\ntag_72:\n    /* \"#utility.yul\":3242:3874   */\n  pop\n  pop\n  pop\n  jump\t// out\n    /* \"#utility.yul\":3880:4203   */\ntag_24:\n    /* \"#utility.yul\":3971:3991   */\n  0x010000000000000000\n    /* \"#utility.yul\":3963:3969   */\n  dup3\n    /* \"#utility.yul\":3960:3992   */\n  gt\n    /* \"#utility.yul\":3957:4035   */\n  iszero\n  tag_78\n  jumpi\n    /* \"#utility.yul\":4007:4025   */\n  tag_79\n  tag_5\n  jump\t// in\ntag_79:\n    /* \"#utility.yul\":3957:4035   */\ntag_78:\n    /* \"#utility.yul\":4059:4108   */\n  tag_80\n    /* \"#utility.yul\":4102:4107   */\n  dup2\n    /* \"#utility.yul\":4059:4108   */\n  tag_6\n  jump\t// in\ntag_80:\n    /* \"#utility.yul\":4118:4196   */\n  tag_81\n    /* \"#utility.yul\":4189:4195   */\n  dup4\n    /* \"#utility.yul\":4181:4187   */\n  dup3\n    /* \"#utility.yul\":4174:4179   */\n  dup5\n    /* \"#utility.yul\":4118:4196   */\n  tag_23\n  jump\t// in\ntag_81:\n    /* \"#utility.yul\":3947:4203   */\n  pop\n    /* \"#utility.yul\":3880:4203   */\n  pop\n  pop\n  jump\t// out\n    /* \"#utility.yul\":4208:4310   */\ntag_25:\n    /* \"#utility.yul\":4271:4277   */\n  0x00\n    /* \"#utility.yul\":4299:4303   */\n  0x04\n    /* \"#utility.yul\":4289:4303   */\n  swap1\n  pop\n    /* \"#utility.yul\":4208:4310   */\n  swap2\n  swap1\n  pop\n  jump\t// out\n    /* \"#utility.yul\":4316:4402   */\ntag_26:\n    /* \"#utility.yul\":4351:4358   */\n  0x00\n    /* \"#utility.yul\":4391:4395   */\n  0xff\n    /* \"#utility.yul\":4384:4389   */\n  dup3\n    /* \"#utility.yul\":4380:4396   */\n  and\n    /* \"#utility.yul\":4369:4396   */\n  swap1\n  pop\n    /* \"#utility.yul\":4316:4402   */\n  swap2\n  swap1\n  pop\n  jump\t// out\n    /* \"#utility.yul\":4408:4558   */\ntag_27:\n    /* \"#utility.yul\":4449:4460   */\n  0x00\n    /* \"#utility.yul\":4485:4512   */\n  tag_85\n    /* \"#utility.yul\":4507:4510   */\n  dup3\n    /* \"#utility.yul\":4501:4511   */\n  mload\n    /* \"#utility.yul\":4485:4512   */\n  tag_26\n  jump\t// in\ntag_85:\n    /* \"#utility.yul\":4546:4551   */\n  dup1\n    /* \"#utility.yul\":4522:4551   */\n  swap2\n  pop\n    /* \"#utility.yul\":4461:4558   */\n  pop\n    /* \"#utility.yul\":4408:4558   */\n  swap2\n  swap1\n  pop\n  jump\t// out\n    /* \"#utility.yul\":4564:4660   */\ntag_28:\n    /* \"#utility.yul\":4627:4631   */\n  0x00\n    /* \"#utility.yul\":4650:4653   */\n  dup2\n    /* \"#utility.yul\":4642:4653   */\n  swap1\n  pop\n    /* \"#utility.yul\":4564:4660   */\n  swap2\n  swap1\n  pop\n  jump\t// out\n    /* \"#utility.yul\":5112:6093   */\ntag_2:\n    /* \"#utility.yul\":5247:5295   */\n  tag_96\n    /* \"#utility.yul\":5291:5294   */\n  dup3\n    /* \"#utility.yul\":5247:5295   */\n  tag_25\n  jump\t// in\ntag_96:\n    /* \"#utility.yul\":5360:5378   */\n  0xffffffffffffffff\n    /* \"#utility.yul\":5352:5358   */\n  dup2\n    /* \"#utility.yul\":5349:5379   */\n  gt\n    /* \"#utility.yul\":5346:5402   */\n  iszero\n  tag_97\n  jumpi\n    /* \"#utility.yul\":5382:5400   */\n  tag_98\n  tag_5\n  jump\t// in\ntag_98:\n    /* \"#utility.yul\":5346:5402   */\ntag_97:\n    /* \"#utility.yul\":5411:5466   */\n  tag_99\n    /* \"#utility.yul\":5459:5465   */\n  dup2\n    /* \"#utility.yul\":5454:5457   */\n  dup4\n    /* \"#utility.yul\":5411:5466   */\n  tag_24\n  jump\t// in\ntag_99:\n    /* \"#utility.yul\":5490:5540   */\n  tag_100\n    /* \"#utility.yul\":5536:5539   */\n  dup4\n    /* \"#utility.yul\":5490:5540   */\n  tag_28\n  jump\t// in\ntag_100:\n    /* \"#utility.yul\":5564:5613   */\n  tag_101\n    /* \"#utility.yul\":5609:5612   */\n  dup4\n    /* \"#utility.yul\":5564:5613   */\n  tag_11\n  jump\t// in\ntag_101:\n    /* \"#utility.yul\":5652:5653   */\n  0x01\n    /* \"#utility.yul\":5644:5650   */\n  dup4\n    /* \"#utility.yul\":5640:5654   */\n  div\n    /* \"#utility.yul\":5679:5680   */\n  0x00\n    /* \"#utility.yul\":5664:6086   */\ntag_102:\n    /* \"#utility.yul\":5689:5698   */\n  dup2\n    /* \"#utility.yul\":5686:5687   */\n  dup2\n    /* \"#utility.yul\":5683:5699   */\n  lt\n    /* \"#utility.yul\":5664:6086   */\n  iszero\n  tag_104\n  jumpi\n    /* \"#utility.yul\":5753:5754   */\n  0x00\n    /* \"#utility.yul\":5806:5837   */\n  tag_105\n    /* \"#utility.yul\":5830:5836   */\n  dup6\n    /* \"#utility.yul\":5806:5837   */\n  tag_27\n  jump\t// in\ntag_105:\n    /* \"#utility.yul\":5872:5908   */\n  tag_106\n    /* \"#utility.yul\":5896:5907   */\n  dup2\n    /* \"#utility.yul\":5872:5908   */\n  tag_16\n  jump\t// in\ntag_106:\n    /* \"#utility.yul\":5958:5967   */\n  dup1\n    /* \"#utility.yul\":5925:5967   */\n  swap3\n  pop\n    /* \"#utility.yul\":6007:6009   */\n  0x20\n    /* \"#utility.yul\":5999:6005   */\n  dup8\n    /* \"#utility.yul\":5995:6010   */\n  add\n    /* \"#utility.yul\":5985:6010   */\n  swap7\n  pop\n    /* \"#utility.yul\":5768:6025   */\n  pop\n  pop\n    /* \"#utility.yul\":6063:6075   */\n  dup1\n    /* \"#utility.yul\":6059:6060   */\n  dup3\n    /* \"#utility.yul\":6050:6057   */\n  dup6\n    /* \"#utility.yul\":6046:6061   */\n  add\n    /* \"#utility.yul\":6039:6076   */\n  sstore\n    /* \"#utility.yul\":5719:6086   */\n  pop\n    /* \"#utility.yul\":5714:5715   */\n  0x01\n    /* \"#utility.yul\":5711:5712   */\n  dup2\n    /* \"#utility.yul\":5707:5716   */\n  add\n    /* \"#utility.yul\":5702:5716   */\n  swap1\n  pop\n    /* \"#utility.yul\":5664:6086   */\n  jump(tag_102)\ntag_104:\n    /* \"#utility.yul\":5668:5682   */\n  pop\n    /* \"#utility.yul\":5222:6093   */\n  pop\n  pop\n  pop\n  pop\n    /* \"#utility.yul\":5112:6093   */\n  pop\n  pop\n  jump\t// out\n    /* \"5_array.sol\":37:626  contract Array... */\ntag_4:\n  dataSize(sub_0)\n  dup1\n  dataOffset(sub_0)\n  0x00\n  codecopy\n  0x00\n  return\nstop\n\nsub_0: assembly {\n        /* \"5_array.sol\":37:626  contract Array... */\n      mstore(0x40, 0x80)\n      callvalue\n      dup1\n      iszero\n      tag_1\n      jumpi\n      revert(0x00, 0x00)\n    tag_1:\n      pop\n      jumpi(tag_2, lt(calldatasize, 0x04))\n      shr(0xe0, calldataload(0x00))\n      dup1\n      0x78321efb\n      gt\n      tag_10\n      jumpi\n      dup1\n      0x78321efb\n      eq\n      tag_6\n      jumpi\n      dup1\n      0xa4ece52c\n      eq\n      tag_7\n      jumpi\n      dup1\n      0xedf0099b\n      eq\n      tag_8\n      jumpi\n      dup1\n      0xfa9fe36e\n      eq\n      tag_9\n      jumpi\n      jump(tag_2)\n    tag_10:\n      dup1\n      0x0edd3a0f\n      eq\n      tag_3\n      jumpi\n      dup1\n      0x5298f36d\n      eq\n      tag_4\n      jumpi\n      dup1\n      0x6987b1fb\n      eq\n      tag_5\n      jumpi\n    tag_2:\n      revert(0x00, 0x00)\n        /* \"5_array.sol\":464:554  function length2() public view returns(uint)... */\n    tag_3:\n      tag_11\n      tag_12\n      jump\t// in\n    tag_11:\n      mload(0x40)\n      tag_13\n      swap2\n      swap1\n      tag_14\n      jump\t// in\n    tag_13:\n      mload(0x40)\n      dup1\n      swap2\n      sub\n      swap1\n      return\n        /* \"5_array.sol\":125:215  function setter(uint index, uint value) public... */\n    tag_4:\n      tag_15\n      0x04\n      dup1\n      calldatasize\n      sub\n      dup2\n      add\n      swap1\n      tag_16\n      swap2\n      swap1\n      tag_17\n      jump\t// in\n    tag_16:\n      tag_18\n      jump\t// in\n    tag_15:\n      stop\n        /* \"5_array.sol\":60:95  uint[4] public arr1 = [10,20,30,40] */\n    tag_5:\n      tag_19\n      0x04\n      dup1\n      calldatasize\n      sub\n      dup2\n      add\n      swap1\n      tag_20\n      swap2\n      swap1\n      tag_21\n      jump\t// in\n    tag_20:\n      tag_22\n      jump\t// in\n    tag_19:\n      mload(0x40)\n      tag_23\n      swap2\n      swap1\n      tag_14\n      jump\t// in\n    tag_23:\n      mload(0x40)\n      dup1\n      swap2\n      sub\n      swap1\n      return\n        /* \"5_array.sol\":376:455  function pushElement(uint item) public ... */\n    tag_6:\n      tag_24\n      0x04\n      dup1\n      calldatasize\n      sub\n      dup2\n      add\n      swap1\n      tag_25\n      swap2\n      swap1\n      tag_21\n      jump\t// in\n    tag_25:\n      tag_26\n      jump\t// in\n    tag_24:\n      stop\n        /* \"5_array.sol\":566:623  function pop() public ... */\n    tag_7:\n      tag_27\n      tag_28\n      jump\t// in\n    tag_27:\n      stop\n        /* \"5_array.sol\":327:345  uint[] public arr2 */\n    tag_8:\n      tag_29\n      0x04\n      dup1\n      calldatasize\n      sub\n      dup2\n      add\n      swap1\n      tag_30\n      swap2\n      swap1\n      tag_21\n      jump\t// in\n    tag_30:\n      tag_31\n      jump\t// in\n    tag_29:\n      mload(0x40)\n      tag_32\n      swap2\n      swap1\n      tag_14\n      jump\t// in\n    tag_32:\n      mload(0x40)\n      dup1\n      swap2\n      sub\n      swap1\n      return\n        /* \"5_array.sol\":229:319  function length1() public view returns(uint)... */\n    tag_9:\n      tag_33\n      tag_34\n      jump\t// in\n    tag_33:\n      mload(0x40)\n      tag_35\n      swap2\n      swap1\n      tag_14\n      jump\t// in\n    tag_35:\n      mload(0x40)\n      dup1\n      swap2\n      sub\n      swap1\n      return\n        /* \"5_array.sol\":464:554  function length2() public view returns(uint)... */\n    tag_12:\n        /* \"5_array.sol\":503:507  uint */\n      0x00\n        /* \"5_array.sol\":532:536  arr2 */\n      0x04\n        /* \"5_array.sol\":532:543  arr2.length */\n      dup1\n      sload\n      swap1\n      pop\n        /* \"5_array.sol\":525:543  return arr2.length */\n      swap1\n      pop\n        /* \"5_array.sol\":464:554  function length2() public view returns(uint)... */\n      swap1\n      jump\t// out\n        /* \"5_array.sol\":125:215  function setter(uint index, uint value) public... */\n    tag_18:\n        /* \"5_array.sol\":202:207  value */\n      dup1\n        /* \"5_array.sol\":188:192  arr1 */\n      0x00\n        /* \"5_array.sol\":193:198  index */\n      dup4\n        /* \"5_array.sol\":188:199  arr1[index] */\n      0x04\n      dup2\n      lt\n      tag_38\n      jumpi\n      tag_39\n      tag_40\n      jump\t// in\n    tag_39:\n    tag_38:\n      add\n        /* \"5_array.sol\":188:207  arr1[index] = value */\n      dup2\n      swap1\n      sstore\n      pop\n        /* \"5_array.sol\":125:215  function setter(uint index, uint value) public... */\n      pop\n      pop\n      jump\t// out\n        /* \"5_array.sol\":60:95  uint[4] public arr1 = [10,20,30,40] */\n    tag_22:\n      0x00\n      dup2\n      0x04\n      dup2\n      lt\n      tag_42\n      jumpi\n      0x00\n      dup1\n      revert\n    tag_42:\n      add\n      0x00\n      swap2\n      pop\n      swap1\n      pop\n      sload\n      dup2\n      jump\t// out\n        /* \"5_array.sol\":376:455  function pushElement(uint item) public ... */\n    tag_26:\n        /* \"5_array.sol\":432:436  arr2 */\n      0x04\n        /* \"5_array.sol\":442:446  item */\n      dup2\n        /* \"5_array.sol\":432:447  arr2.push(item) */\n      swap1\n      dup1\n      0x01\n      dup2\n      sload\n      add\n      dup1\n      dup3\n      sstore\n      dup1\n      swap2\n      pop\n      pop\n      0x01\n      swap1\n      sub\n      swap1\n      0x00\n      mstore\n      keccak256(0x00, 0x20)\n      add\n      0x00\n      swap1\n      swap2\n      swap1\n      swap2\n      swap1\n      swap2\n      pop\n      sstore\n        /* \"5_array.sol\":376:455  function pushElement(uint item) public ... */\n      pop\n      jump\t// out\n        /* \"5_array.sol\":566:623  function pop() public ... */\n    tag_28:\n        /* \"5_array.sol\":605:609  arr2 */\n      0x04\n        /* \"5_array.sol\":605:615  arr2.pop() */\n      dup1\n      sload\n      dup1\n      tag_47\n      jumpi\n      tag_48\n      tag_49\n      jump\t// in\n    tag_48:\n    tag_47:\n      0x01\n      swap1\n      sub\n      dup2\n      dup2\n      swap1\n      0x00\n      mstore\n      keccak256(0x00, 0x20)\n      add\n      0x00\n      swap1\n      sstore\n      swap1\n      sstore\n        /* \"5_array.sol\":566:623  function pop() public ... */\n      jump\t// out\n        /* \"5_array.sol\":327:345  uint[] public arr2 */\n    tag_31:\n      0x04\n      dup2\n      dup2\n      sload\n      dup2\n      lt\n      tag_51\n      jumpi\n      0x00\n      dup1\n      revert\n    tag_51:\n      swap1\n      0x00\n      mstore\n      keccak256(0x00, 0x20)\n      add\n      0x00\n      swap2\n      pop\n      swap1\n      pop\n      sload\n      dup2\n      jump\t// out\n        /* \"5_array.sol\":229:319  function length1() public view returns(uint)... */\n    tag_34:\n        /* \"5_array.sol\":268:272  uint */\n      0x00\n        /* \"5_array.sol\":297:308  arr1.length */\n      0x04\n        /* \"5_array.sol\":290:308  return arr1.length */\n      swap1\n      pop\n        /* \"5_array.sol\":229:319  function length1() public view returns(uint)... */\n      swap1\n      jump\t// out\n        /* \"#utility.yul\":7:84   */\n    tag_54:\n        /* \"#utility.yul\":44:51   */\n      0x00\n        /* \"#utility.yul\":73:78   */\n      dup2\n        /* \"#utility.yul\":62:78   */\n      swap1\n      pop\n        /* \"#utility.yul\":7:84   */\n      swap2\n      swap1\n      pop\n      jump\t// out\n        /* \"#utility.yul\":90:208   */\n    tag_55:\n        /* \"#utility.yul\":177:201   */\n      tag_64\n        /* \"#utility.yul\":195:200   */\n      dup2\n        /* \"#utility.yul\":177:201   */\n      tag_54\n      jump\t// in\n    tag_64:\n        /* \"#utility.yul\":172:175   */\n      dup3\n        /* \"#utility.yul\":165:202   */\n      mstore\n        /* \"#utility.yul\":90:208   */\n      pop\n      pop\n      jump\t// out\n        /* \"#utility.yul\":214:436   */\n    tag_14:\n        /* \"#utility.yul\":307:311   */\n      0x00\n        /* \"#utility.yul\":345:347   */\n      0x20\n        /* \"#utility.yul\":334:343   */\n      dup3\n        /* \"#utility.yul\":330:348   */\n      add\n        /* \"#utility.yul\":322:348   */\n      swap1\n      pop\n        /* \"#utility.yul\":358:429   */\n      tag_66\n        /* \"#utility.yul\":426:427   */\n      0x00\n        /* \"#utility.yul\":415:424   */\n      dup4\n        /* \"#utility.yul\":411:428   */\n      add\n        /* \"#utility.yul\":402:408   */\n      dup5\n        /* \"#utility.yul\":358:429   */\n      tag_55\n      jump\t// in\n    tag_66:\n        /* \"#utility.yul\":214:436   */\n      swap3\n      swap2\n      pop\n      pop\n      jump\t// out\n        /* \"#utility.yul\":523:640   */\n    tag_57:\n        /* \"#utility.yul\":632:633   */\n      0x00\n        /* \"#utility.yul\":629:630   */\n      0x00\n        /* \"#utility.yul\":622:634   */\n      revert\n        /* \"#utility.yul\":769:891   */\n    tag_59:\n        /* \"#utility.yul\":842:866   */\n      tag_71\n        /* \"#utility.yul\":860:865   */\n      dup2\n        /* \"#utility.yul\":842:866   */\n      tag_54\n      jump\t// in\n    tag_71:\n        /* \"#utility.yul\":835:840   */\n      dup2\n        /* \"#utility.yul\":832:867   */\n      eq\n        /* \"#utility.yul\":822:885   */\n      tag_72\n      jumpi\n        /* \"#utility.yul\":881:882   */\n      0x00\n        /* \"#utility.yul\":878:879   */\n      0x00\n        /* \"#utility.yul\":871:883   */\n      revert\n        /* \"#utility.yul\":822:885   */\n    tag_72:\n        /* \"#utility.yul\":769:891   */\n      pop\n      jump\t// out\n        /* \"#utility.yul\":897:1036   */\n    tag_60:\n        /* \"#utility.yul\":943:948   */\n      0x00\n        /* \"#utility.yul\":981:987   */\n      dup2\n        /* \"#utility.yul\":968:988   */\n      calldataload\n        /* \"#utility.yul\":959:988   */\n      swap1\n      pop\n        /* \"#utility.yul\":997:1030   */\n      tag_74\n        /* \"#utility.yul\":1024:1029   */\n      dup2\n        /* \"#utility.yul\":997:1030   */\n      tag_59\n      jump\t// in\n    tag_74:\n        /* \"#utility.yul\":897:1036   */\n      swap3\n      swap2\n      pop\n      pop\n      jump\t// out\n        /* \"#utility.yul\":1042:1516   */\n    tag_17:\n        /* \"#utility.yul\":1110:1116   */\n      0x00\n        /* \"#utility.yul\":1118:1124   */\n      0x00\n        /* \"#utility.yul\":1167:1169   */\n      0x40\n        /* \"#utility.yul\":1155:1164   */\n      dup4\n        /* \"#utility.yul\":1146:1153   */\n      dup6\n        /* \"#utility.yul\":1142:1165   */\n      sub\n        /* \"#utility.yul\":1138:1170   */\n      slt\n        /* \"#utility.yul\":1135:1254   */\n      iszero\n      tag_76\n      jumpi\n        /* \"#utility.yul\":1173:1252   */\n      tag_77\n      tag_57\n      jump\t// in\n    tag_77:\n        /* \"#utility.yul\":1135:1254   */\n    tag_76:\n        /* \"#utility.yul\":1293:1294   */\n      0x00\n        /* \"#utility.yul\":1318:1371   */\n      tag_78\n        /* \"#utility.yul\":1363:1370   */\n      dup6\n        /* \"#utility.yul\":1354:1360   */\n      dup3\n        /* \"#utility.yul\":1343:1352   */\n      dup7\n        /* \"#utility.yul\":1339:1361   */\n      add\n        /* \"#utility.yul\":1318:1371   */\n      tag_60\n      jump\t// in\n    tag_78:\n        /* \"#utility.yul\":1308:1371   */\n      swap3\n      pop\n        /* \"#utility.yul\":1264:1381   */\n      pop\n        /* \"#utility.yul\":1420:1422   */\n      0x20\n        /* \"#utility.yul\":1446:1499   */\n      tag_79\n        /* \"#utility.yul\":1491:1498   */\n      dup6\n        /* \"#utility.yul\":1482:1488   */\n      dup3\n        /* \"#utility.yul\":1471:1480   */\n      dup7\n        /* \"#utility.yul\":1467:1489   */\n      add\n        /* \"#utility.yul\":1446:1499   */\n      tag_60\n      jump\t// in\n    tag_79:\n        /* \"#utility.yul\":1436:1499   */\n      swap2\n      pop\n        /* \"#utility.yul\":1391:1509   */\n      pop\n        /* \"#utility.yul\":1042:1516   */\n      swap3\n      pop\n      swap3\n      swap1\n      pop\n      jump\t// out\n        /* \"#utility.yul\":1522:1851   */\n    tag_21:\n        /* \"#utility.yul\":1581:1587   */\n      0x00\n        /* \"#utility.yul\":1630:1632   */\n      0x20\n        /* \"#utility.yul\":1618:1627   */\n      dup3\n        /* \"#utility.yul\":1609:1616   */\n      dup5\n        /* \"#utility.yul\":1605:1628   */\n      sub\n        /* \"#utility.yul\":1601:1633   */\n      slt\n        /* \"#utility.yul\":1598:1717   */\n      iszero\n      tag_81\n      jumpi\n        /* \"#utility.yul\":1636:1715   */\n      tag_82\n      tag_57\n      jump\t// in\n    tag_82:\n        /* \"#utility.yul\":1598:1717   */\n    tag_81:\n        /* \"#utility.yul\":1756:1757   */\n      0x00\n        /* \"#utility.yul\":1781:1834   */\n      tag_83\n        /* \"#utility.yul\":1826:1833   */\n      dup5\n        /* \"#utility.yul\":1817:1823   */\n      dup3\n        /* \"#utility.yul\":1806:1815   */\n      dup6\n        /* \"#utility.yul\":1802:1824   */\n      add\n        /* \"#utility.yul\":1781:1834   */\n      tag_60\n      jump\t// in\n    tag_83:\n        /* \"#utility.yul\":1771:1834   */\n      swap2\n      pop\n        /* \"#utility.yul\":1727:1844   */\n      pop\n        /* \"#utility.yul\":1522:1851   */\n      swap3\n      swap2\n      pop\n      pop\n      jump\t// out\n        /* \"#utility.yul\":1857:2037   */\n    tag_40:\n        /* \"#utility.yul\":1905:1982   */\n      0x4e487b7100000000000000000000000000000000000000000000000000000000\n        /* \"#utility.yul\":1902:1903   */\n      0x00\n        /* \"#utility.yul\":1895:1983   */\n      mstore\n        /* \"#utility.yul\":2002:2006   */\n      0x32\n        /* \"#utility.yul\":1999:2000   */\n      0x04\n        /* \"#utility.yul\":1992:2007   */\n      mstore\n        /* \"#utility.yul\":2026:2030   */\n      0x24\n        /* \"#utility.yul\":2023:2024   */\n      0x00\n        /* \"#utility.yul\":2016:2031   */\n      revert\n        /* \"#utility.yul\":2043:2223   */\n    tag_49:\n        /* \"#utility.yul\":2091:2168   */\n      0x4e487b7100000000000000000000000000000000000000000000000000000000\n        /* \"#utility.yul\":2088:2089   */\n      0x00\n        /* \"#utility.yul\":2081:2169   */\n      mstore\n        /* \"#utility.yul\":2188:2192   */\n      0x31\n        /* \"#utility.yul\":2185:2186   */\n      0x04\n        /* \"#utility.yul\":2178:2193   */\n      mstore\n        /* \"#utility.yul\":2212:2216   */\n      0x24\n        /* \"#utility.yul\":2209:2210   */\n      0x00\n        /* \"#utility.yul\":2202:2217   */\n      revert\n\n    auxdata: 0xa2646970667358221220286ba70190386802d973e2ac525d7387e9f1fed0e872874d4faf075355bc2e0464736f6c63430008210033\n}\n",
				"bytecode": {
					"linkReferences": {},
					"object": "60806040526040518060800160405280600a60ff168152602001601460ff168152602001601e60ff168152602001602860ff168152505f9081610042919061024d565b5034801561004e575f5ffd5b506102d1565b7f4e487b71000000000000000000000000000000000000000000000000000000005f52604160045260245ffd5b5f60049050919050565b5f819050919050565b5f8190506001806001038301049050919050565b5f819050919050565b5f82821b905092915050565b5f600883026100ec7fffffffffffffffffffffffffffffffffffffffffffffffffffffffffffffffff826100b1565b6100f686836100b1565b95508019841693508086168417925050509392505050565b5f819050919050565b5f61013161012c6101278461008b565b61010e565b61008b565b9050919050565b5f819050919050565b61014a83610117565b61015e61015682610138565b8484546100bd565b825550505050565b5f5f905090565b610175610166565b610180818484610141565b505050565b5f5b828110156101a65761019b5f82840161016d565b600181019050610187565b505050565b818310156101e2576101bc82610094565b6101c584610094565b6101ce836100a8565b8181016101dd83850382610185565b505050505b505050565b6801000000000000000082111561020157610200610054565b5b61020a81610081565b6102158382846101ab565b505050565b5f60049050919050565b5f60ff82169050919050565b5f61023b8251610224565b80915050919050565b5f819050919050565b6102568261021a565b67ffffffffffffffff81111561026f5761026e610054565b5b61027981836101e7565b61028283610244565b61028b836100a8565b600183045f5b818110156102c8575f6102a385610230565b6102ac81610138565b8092506020870196505050808285015550600181019050610291565b50505050505050565b61036e806102de5f395ff3fe608060405234801561000f575f5ffd5b506004361061007b575f3560e01c806378321efb1161005957806378321efb146100e9578063a4ece52c14610105578063edf0099b1461010f578063fa9fe36e1461013f5761007b565b80630edd3a0f1461007f5780635298f36d1461009d5780636987b1fb146100b9575b5f5ffd5b61008761015d565b604051610094919061022e565b60405180910390f35b6100b760048036038101906100b29190610275565b610169565b005b6100d360048036038101906100ce91906102b3565b610186565b6040516100e0919061022e565b60405180910390f35b61010360048036038101906100fe91906102b3565b61019e565b005b61010d6101c7565b005b610129600480360381019061012491906102b3565b6101ee565b604051610136919061022e565b60405180910390f35b61014761020e565b604051610154919061022e565b60405180910390f35b5f600480549050905090565b805f836004811061017d5761017c6102de565b5b01819055505050565b5f8160048110610194575f80fd5b015f915090505481565b600481908060018154018082558091505060019003905f5260205f20015f909190919091505550565b60048054806101d9576101d861030b565b5b600190038181905f5260205f20015f90559055565b600481815481106101fd575f80fd5b905f5260205f20015f915090505481565b5f6004905090565b5f819050919050565b61022881610216565b82525050565b5f6020820190506102415f83018461021f565b92915050565b5f5ffd5b61025481610216565b811461025e575f5ffd5b50565b5f8135905061026f8161024b565b92915050565b5f5f6040838503121561028b5761028a610247565b5b5f61029885828601610261565b92505060206102a985828601610261565b9150509250929050565b5f602082840312156102c8576102c7610247565b5b5f6102d584828501610261565b91505092915050565b7f4e487b71000000000000000000000000000000000000000000000000000000005f52603260045260245ffd5b7f4e487b71000000000000000000000000000000000000000000000000000000005f52603160045260245ffdfea2646970667358221220286ba70190386802d973e2ac525d7387e9f1fed0e872874d4faf075355bc2e0464736f6c63430008210033",
					"opcodes": "PUSH1 0x80 PUSH1 0x40 MSTORE PUSH1 0x40 MLOAD DUP1 PUSH1 0x80 ADD PUSH1 0x40 MSTORE DUP1 PUSH1 0xA PUSH1 0xFF AND DUP2 MSTORE PUSH1 0x20 ADD PUSH1 0x14 PUSH1 0xFF AND DUP2 MSTORE PUSH1 0x20 ADD PUSH1 0x1E PUSH1 0xFF AND DUP2 MSTORE PUSH1 0x20 ADD PUSH1 0x28 PUSH1 0xFF AND DUP2 MSTORE POP PUSH0 SWAP1 DUP2 PUSH2 0x42 SWAP2 SWAP1 PUSH2 0x24D JUMP JUMPDEST POP CALLVALUE DUP1 ISZERO PUSH2 0x4E JUMPI PUSH0 PUSH0 REVERT JUMPDEST POP PUSH2 0x2D1 JUMP JUMPDEST PUSH32 0x4E487B7100000000000000000000000000000000000000000000000000000000 PUSH0 MSTORE PUSH1 0x41 PUSH1 0x4 MSTORE PUSH1 0x24 PUSH0 REVERT JUMPDEST PUSH0 PUSH1 0x4 SWAP1 POP SWAP2 SWAP1 POP JUMP JUMPDEST PUSH0 DUP2 SWAP1 POP SWAP2 SWAP1 POP JUMP JUMPDEST PUSH0 DUP2 SWAP1 POP PUSH1 0x1 DUP1 PUSH1 0x1 SUB DUP4 ADD DIV SWAP1 POP SWAP2 SWAP1 POP JUMP JUMPDEST PUSH0 DUP2 SWAP1 POP SWAP2 SWAP1 POP JUMP JUMPDEST PUSH0 DUP3 DUP3 SHL SWAP1 POP SWAP3 SWAP2 POP POP JUMP JUMPDEST PUSH0 PUSH1 0x8 DUP4 MUL PUSH2 0xEC PUSH32 0xFFFFFFFFFFFFFFFFFFFFFFFFFFFFFFFFFFFFFFFFFFFFFFFFFFFFFFFFFFFFFFFF DUP3 PUSH2 0xB1 JUMP JUMPDEST PUSH2 0xF6 DUP7 DUP4 PUSH2 0xB1 JUMP JUMPDEST SWAP6 POP DUP1 NOT DUP5 AND SWAP4 POP DUP1 DUP7 AND DUP5 OR SWAP3 POP POP POP SWAP4 SWAP3 POP POP POP JUMP JUMPDEST PUSH0 DUP2 SWAP1 POP SWAP2 SWAP1 POP JUMP JUMPDEST PUSH0 PUSH2 0x131 PUSH2 0x12C PUSH2 0x127 DUP5 PUSH2 0x8B JUMP JUMPDEST PUSH2 0x10E JUMP JUMPDEST PUSH2 0x8B JUMP JUMPDEST SWAP1 POP SWAP2 SWAP1 POP JUMP JUMPDEST PUSH0 DUP2 SWAP1 POP SWAP2 SWAP1 POP JUMP JUMPDEST PUSH2 0x14A DUP4 PUSH2 0x117 JUMP JUMPDEST PUSH2 0x15E PUSH2 0x156 DUP3 PUSH2 0x138 JUMP JUMPDEST DUP5 DUP5 SLOAD PUSH2 0xBD JUMP JUMPDEST DUP3 SSTORE POP POP POP POP JUMP JUMPDEST PUSH0 PUSH0 SWAP1 POP SWAP1 JUMP JUMPDEST PUSH2 0x175 PUSH2 0x166 JUMP JUMPDEST PUSH2 0x180 DUP2 DUP5 DUP5 PUSH2 0x141 JUMP JUMPDEST POP POP POP JUMP JUMPDEST PUSH0 JUMPDEST DUP3 DUP2 LT ISZERO PUSH2 0x1A6 JUMPI PUSH2 0x19B PUSH0 DUP3 DUP5 ADD PUSH2 0x16D JUMP JUMPDEST PUSH1 0x1 DUP2 ADD SWAP1 POP PUSH2 0x187 JUMP JUMPDEST POP POP POP JUMP JUMPDEST DUP2 DUP4 LT ISZERO PUSH2 0x1E2 JUMPI PUSH2 0x1BC DUP3 PUSH2 0x94 JUMP JUMPDEST PUSH2 0x1C5 DUP5 PUSH2 0x94 JUMP JUMPDEST PUSH2 0x1CE DUP4 PUSH2 0xA8 JUMP JUMPDEST DUP2 DUP2 ADD PUSH2 0x1DD DUP4 DUP6 SUB DUP3 PUSH2 0x185 JUMP JUMPDEST POP POP POP POP JUMPDEST POP POP POP JUMP JUMPDEST PUSH9 0x10000000000000000 DUP3 GT ISZERO PUSH2 0x201 JUMPI PUSH2 0x200 PUSH2 0x54 JUMP JUMPDEST JUMPDEST PUSH2 0x20A DUP2 PUSH2 0x81 JUMP JUMPDEST PUSH2 0x215 DUP4 DUP3 DUP5 PUSH2 0x1AB JUMP JUMPDEST POP POP POP JUMP JUMPDEST PUSH0 PUSH1 0x4 SWAP1 POP SWAP2 SWAP1 POP JUMP JUMPDEST PUSH0 PUSH1 0xFF DUP3 AND SWAP1 POP SWAP2 SWAP1 POP JUMP JUMPDEST PUSH0 PUSH2 0x23B DUP3 MLOAD PUSH2 0x224 JUMP JUMPDEST DUP1 SWAP2 POP POP SWAP2 SWAP1 POP JUMP JUMPDEST PUSH0 DUP2 SWAP1 POP SWAP2 SWAP1 POP JUMP JUMPDEST PUSH2 0x256 DUP3 PUSH2 0x21A JUMP JUMPDEST PUSH8 0xFFFFFFFFFFFFFFFF DUP2 GT ISZERO PUSH2 0x26F JUMPI PUSH2 0x26E PUSH2 0x54 JUMP JUMPDEST JUMPDEST PUSH2 0x279 DUP2 DUP4 PUSH2 0x1E7 JUMP JUMPDEST PUSH2 0x282 DUP4 PUSH2 0x244 JUMP JUMPDEST PUSH2 0x28B DUP4 PUSH2 0xA8 JUMP JUMPDEST PUSH1 0x1 DUP4 DIV PUSH0 JUMPDEST DUP2 DUP2 LT ISZERO PUSH2 0x2C8 JUMPI PUSH0 PUSH2 0x2A3 DUP6 PUSH2 0x230 JUMP JUMPDEST PUSH2 0x2AC DUP2 PUSH2 0x138 JUMP JUMPDEST DUP1 SWAP3 POP PUSH1 0x20 DUP8 ADD SWAP7 POP POP POP DUP1 DUP3 DUP6 ADD SSTORE POP PUSH1 0x1 DUP2 ADD SWAP1 POP PUSH2 0x291 JUMP JUMPDEST POP POP POP POP POP POP POP JUMP JUMPDEST PUSH2 0x36E DUP1 PUSH2 0x2DE PUSH0 CODECOPY PUSH0 RETURN INVALID PUSH1 0x80 PUSH1 0x40 MSTORE CALLVALUE DUP1 ISZERO PUSH2 0xF JUMPI PUSH0 PUSH0 REVERT JUMPDEST POP PUSH1 0x4 CALLDATASIZE LT PUSH2 0x7B JUMPI PUSH0 CALLDATALOAD PUSH1 0xE0 SHR DUP1 PUSH4 0x78321EFB GT PUSH2 0x59 JUMPI DUP1 PUSH4 0x78321EFB EQ PUSH2 0xE9 JUMPI DUP1 PUSH4 0xA4ECE52C EQ PUSH2 0x105 JUMPI DUP1 PUSH4 0xEDF0099B EQ PUSH2 0x10F JUMPI DUP1 PUSH4 0xFA9FE36E EQ PUSH2 0x13F JUMPI PUSH2 0x7B JUMP JUMPDEST DUP1 PUSH4 0xEDD3A0F EQ PUSH2 0x7F JUMPI DUP1 PUSH4 0x5298F36D EQ PUSH2 0x9D JUMPI DUP1 PUSH4 0x6987B1FB EQ PUSH2 0xB9 JUMPI JUMPDEST PUSH0 PUSH0 REVERT JUMPDEST PUSH2 0x87 PUSH2 0x15D JUMP JUMPDEST PUSH1 0x40 MLOAD PUSH2 0x94 SWAP2 SWAP1 PUSH2 0x22E JUMP JUMPDEST PUSH1 0x40 MLOAD DUP1 SWAP2 SUB SWAP1 RETURN JUMPDEST PUSH2 0xB7 PUSH1 0x4 DUP1 CALLDATASIZE SUB DUP2 ADD SWAP1 PUSH2 0xB2 SWAP2 SWAP1 PUSH2 0x275 JUMP JUMPDEST PUSH2 0x169 JUMP JUMPDEST STOP JUMPDEST PUSH2 0xD3 PUSH1 0x4 DUP1 CALLDATASIZE SUB DUP2 ADD SWAP1 PUSH2 0xCE SWAP2 SWAP1 PUSH2 0x2B3 JUMP JUMPDEST PUSH2 0x186 JUMP JUMPDEST PUSH1 0x40 MLOAD PUSH2 0xE0 SWAP2 SWAP1 PUSH2 0x22E JUMP JUMPDEST PUSH1 0x40 MLOAD DUP1 SWAP2 SUB SWAP1 RETURN JUMPDEST PUSH2 0x103 PUSH1 0x4 DUP1 CALLDATASIZE SUB DUP2 ADD SWAP1 PUSH2 0xFE SWAP2 SWAP1 PUSH2 0x2B3 JUMP JUMPDEST PUSH2 0x19E JUMP JUMPDEST STOP JUMPDEST PUSH2 0x10D PUSH2 0x1C7 JUMP JUMPDEST STOP JUMPDEST PUSH2 0x129 PUSH1 0x4 DUP1 CALLDATASIZE SUB DUP2 ADD SWAP1 PUSH2 0x124 SWAP2 SWAP1 PUSH2 0x2B3 JUMP JUMPDEST PUSH2 0x1EE JUMP JUMPDEST PUSH1 0x40 MLOAD PUSH2 0x136 SWAP2 SWAP1 PUSH2 0x22E JUMP JUMPDEST PUSH1 0x40 MLOAD DUP1 SWAP2 SUB SWAP1 RETURN JUMPDEST PUSH2 0x147 PUSH2 0x20E JUMP JUMPDEST PUSH1 0x40 MLOAD PUSH2 0x154 SWAP2 SWAP1 PUSH2 0x22E JUMP JUMPDEST PUSH1 0x40 MLOAD DUP1 SWAP2 SUB SWAP1 RETURN JUMPDEST PUSH0 PUSH1 0x4 DUP1 SLOAD SWAP1 POP SWAP1 POP SWAP1 JUMP JUMPDEST DUP1 PUSH0 DUP4 PUSH1 0x4 DUP2 LT PUSH2 0x17D JUMPI PUSH2 0x17C PUSH2 0x2DE JUMP JUMPDEST JUMPDEST ADD DUP2 SWAP1 SSTORE POP POP POP JUMP JUMPDEST PUSH0 DUP2 PUSH1 0x4 DUP2 LT PUSH2 0x194 JUMPI PUSH0 DUP1 REVERT JUMPDEST ADD PUSH0 SWAP2 POP SWAP1 POP SLOAD DUP2 JUMP JUMPDEST PUSH1 0x4 DUP2 SWAP1 DUP1 PUSH1 0x1 DUP2 SLOAD ADD DUP1 DUP3 SSTORE DUP1 SWAP2 POP POP PUSH1 0x1 SWAP1 SUB SWAP1 PUSH0 MSTORE PUSH1 0x20 PUSH0 KECCAK256 ADD PUSH0 SWAP1 SWAP2 SWAP1 SWAP2 SWAP1 SWAP2 POP SSTORE POP JUMP JUMPDEST PUSH1 0x4 DUP1 SLOAD DUP1 PUSH2 0x1D9 JUMPI PUSH2 0x1D8 PUSH2 0x30B JUMP JUMPDEST JUMPDEST PUSH1 0x1 SWAP1 SUB DUP2 DUP2 SWAP1 PUSH0 MSTORE PUSH1 0x20 PUSH0 KECCAK256 ADD PUSH0 SWAP1 SSTORE SWAP1 SSTORE JUMP JUMPDEST PUSH1 0x4 DUP2 DUP2 SLOAD DUP2 LT PUSH2 0x1FD JUMPI PUSH0 DUP1 REVERT JUMPDEST SWAP1 PUSH0 MSTORE PUSH1 0x20 PUSH0 KECCAK256 ADD PUSH0 SWAP2 POP SWAP1 POP SLOAD DUP2 JUMP JUMPDEST PUSH0 PUSH1 0x4 SWAP1 POP SWAP1 JUMP JUMPDEST PUSH0 DUP2 SWAP1 POP SWAP2 SWAP1 POP JUMP JUMPDEST PUSH2 0x228 DUP2 PUSH2 0x216 JUMP JUMPDEST DUP3 MSTORE POP POP JUMP JUMPDEST PUSH0 PUSH1 0x20 DUP3 ADD SWAP1 POP PUSH2 0x241 PUSH0 DUP4 ADD DUP5 PUSH2 0x21F JUMP JUMPDEST SWAP3 SWAP2 POP POP JUMP JUMPDEST PUSH0 PUSH0 REVERT JUMPDEST PUSH2 0x254 DUP2 PUSH2 0x216 JUMP JUMPDEST DUP2 EQ PUSH2 0x25E JUMPI PUSH0 PUSH0 REVERT JUMPDEST POP JUMP JUMPDEST PUSH0 DUP2 CALLDATALOAD SWAP1 POP PUSH2 0x26F DUP2 PUSH2 0x24B JUMP JUMPDEST SWAP3 SWAP2 POP POP JUMP JUMPDEST PUSH0 PUSH0 PUSH1 0x40 DUP4 DUP6 SUB SLT ISZERO PUSH2 0x28B JUMPI PUSH2 0x28A PUSH2 0x247 JUMP JUMPDEST JUMPDEST PUSH0 PUSH2 0x298 DUP6 DUP3 DUP7 ADD PUSH2 0x261 JUMP JUMPDEST SWAP3 POP POP PUSH1 0x20 PUSH2 0x2A9 DUP6 DUP3 DUP7 ADD PUSH2 0x261 JUMP JUMPDEST SWAP2 POP POP SWAP3 POP SWAP3 SWAP1 POP JUMP JUMPDEST PUSH0 PUSH1 0x20 DUP3 DUP5 SUB SLT ISZERO PUSH2 0x2C8 JUMPI PUSH2 0x2C7 PUSH2 0x247 JUMP JUMPDEST JUMPDEST PUSH0 PUSH2 0x2D5 DUP5 DUP3 DUP6 ADD PUSH2 0x261 JUMP JUMPDEST SWAP2 POP POP SWAP3 SWAP2 POP POP JUMP JUMPDEST PUSH32 0x4E487B7100000000000000000000000000000000000000000000000000000000 PUSH0 MSTORE PUSH1 0x32 PUSH1 0x4 MSTORE PUSH1 0x24 PUSH0 REVERT JUMPDEST PUSH32 0x4E487B7100000000000000000000000000000000000000000000000000000000 PUSH0 MSTORE PUSH1 0x31 PUSH1 0x4 MSTORE PUSH1 0x24 PUSH0 REVERT INVALID LOG2 PUSH5 0x6970667358 0x22 SLT KECCAK256 0x28 PUSH12 0xA70190386802D973E2AC525D PUSH20 0x87E9F1FED0E872874D4FAF075355BC2E0464736F PUSH13 0x63430008210033000000000000 "
				},
				"gasEstimates": {
					"creation": {
						"codeDepositCost": "175600",
						"executionCost": "infinite",
						"totalCost": "infinite"
					},
					"external": {
						"arr1(uint256)": "infinite",
						"arr2(uint256)": "infinite",
						"length1()": "398",
						"length2()": "2441",
						"pop()": "29463",
						"pushElement(uint256)": "46821",
						"setter(uint256,uint256)": "infinite"
					}
				},
				"methodIdentifiers": {
					"arr1(uint256)": "6987b1fb",
					"arr2(uint256)": "edf0099b",
					"length1()": "fa9fe36e",
					"length2()": "0edd3a0f",
					"pop()": "a4ece52c",
					"pushElement(uint256)": "78321efb",
					"setter(uint256,uint256)": "5298f36d"
				}
			},
			"storageLayout": {
				"storage": [
					{
						"astId": 10,
						"contract": "5_array.sol:Array",
						"label": "arr1",
						"offset": 0,
						"slot": "0",
						"type": "t_array(t_uint256)4_storage"
					},
					{
						"astId": 36,
						"contract": "5_array.sol:Array",
						"label": "arr2",
						"offset": 0,
						"slot": "4",
						"type": "t_array(t_uint256)dyn_storage"
					}
				],
				"types": {
					"t_array(t_uint256)4_storage": {
						"base": "t_uint256",
						"encoding": "inplace",
						"label": "uint256[4]",
						"numberOfBytes": "128"
					},
					"t_array(t_uint256)dyn_storage": {
						"base": "t_uint256",
						"encoding": "dynamic_array",
						"label": "uint256[]",
						"numberOfBytes": "32"
					},
					"t_uint256": {
						"encoding": "inplace",
						"label": "uint256",
						"numberOfBytes": "32"
					}
				}
			},
			"userdoc": {
				"kind": "user",
				"methods": {},
				"version": 1
			}
		}
	}
}